:1000000000000120750300005D0300005F03000095
:1000100061030000630300006503000000000000AE
:100020000000000000000000000000006703000066
:1000300069030000000000006B0300006D03000076
:100040002DD000006F03000031D400006F030000CA
:100050006F0300006F030000E5D200006F03000093
:100060006F0300006F030000B9AA00006F030000D7
:100070006F0300004DD500006F0300006F03000008
:100080006F030000FD1300006F0300006F0300000A
:100090006F0300006F030000314701006F03000091
:1000A0006F0300006F0300006F0300006F03000088
:1000B0006F0300006F03000000000000000000005C
:1000C0006F0300006F0300006F0300006F03000068
:1000D0006F0300006F0300006F03000000000000CA
:1000E0000000000000000000000000000000000010
:1000F0000000000000000000000000000000000000
:1001000000000000000000000000000000000000EF
:1001100000000000000000000000000000000000DF
:1001200000000000000000000000000000000000CF
:1001300000000000000000000000000000000000BF
:1001400000000000000000000000000000000000AF
:10015000000000000000000000000000000000009F
:10016000000000000000000000000000000000008F
:10017000000000000000000000000000000000007F
:10018000000000000000000000000000000000006F
:10019000000000000000000000000000000000005F
:1001A000000000000000000000000000000000004F
:1001B000000000000000000000000000000000003F
:1001C000000000000000000000000000000000002F
:1001D000000000000000000000000000000000001F
:1001E000000000000000000000000000000000000F
:1001F00000000000000000000000000000000000FF
:10020000354936480A1A02D0072291438D463449AF
:1002100034480A1A06D00722914381F30988022242
:1002200082F3148830483149314A00F044F83148AB
:100230003149324A00F03FF831483249324A00F041
:100240003AF832483249334A00F035F832483349F7
:10025000334A00F030F833483349344A00F02BF881
:1002600033483449344A00F026F8344834490022EF
:1002700000F02CF833483449002200F027F83348C6
:100280003349091A082902DB002202604160314A21
:1002900090471F481F49884205D00268043003B4C4
:1002A000904703BCF7E700208646EC46002000217B
:1002B000294A9047FEE7884207D0521A05D00378B2
:1002C00001300B700131013AF9D17047884202D0F8
:1002D00002700130FAE770470000012000E00020C2
:1002E0000000012000000120F8DF01007C15002043
:1002F00010170020D0030000D00300000488010084
:10030000F8DF01007C1500207C150020308A0100F8
:10031000308A0100308A0100308A0100308A0100F1
:10032000308A0100308A0100308A0100F8DF0100C4
:100330008CE101001017002010170020101700207A
:10034000EA3C0020EC3C0020EC3C0020EC3C00208F
:10035000EC5C00209D03000019EA0000FEE7FEE7C8
:10036000FEE7FEE7FEE7FEE7FEE7FEE7FEE7FEE765
:1003700000F002B8FFF7FCBF0F484FF007018843B9
:1003800085460E4880470E48016841F470010160BF
:10039000BFF34F8FBFF36F8FFFF732BF09480A4992
:1003A0000A4A884207D0521A05D0037801300B70F0
:1003B0000131013AF9D170470000012085EF0000BA
:1003C00088ED00E01C8A0100681500207C150020E3
:1003D000022003F09BB800002DE9F04780460D464F
:1003E00003F0B4F80328044610D8012D10D0022DD4
:1003F00030D05DB91A4800F094FD1A4B04EB44026A
:1004000013449D78184B1B5DAB4219D0BDE8F087B3
:10041000144E00EB4003F218F55C5378470053B1DB
:10042000DFF84C900E484A464FF4804100F050FDF2
:1004300008B989F8008027443E440B4BB2781A551E
:10044000002DE3D0094B1B68002BDFD02846BDE808
:10045000F047184700EB4004024804446578EFE792
:10046000A0150020121700202D17002028170020AB
:100470001017002000780221FFF7AEBF08B5094B26
:100480001B7853B1002003F017F8012003F014F893
:10049000BDE80840032003F00FB8BDE8084003F0B2
:1004A00017B800BF11170020F8B57A4C237805461D
:1004B0001BB100232370FFF7E1FF172D00F28780A7
:1004C000DFE805F00C1717425364757F878C878C23
:1004D000949999999999C3C8D0D8E3E3FFF7CEFFCF
:1004E0006D4800F01EFD6D4B002204461A70204638
:1004F000F8BD002002F0C6FFF0B1002002F0DCFFE2
:10050000022D0CBF4FF4E1644FF47A64634B1D700D
:1005100000254FF400464FF47A7029464FF4FA62F2
:100520000023E4FB060114F0C2FA2A460146BDE8A6
:10053000F840594800F0CCBC02F0B2FF022D0CBFCD
:10054000C8244FF4C874E1E7002002F09BFF40B1DB
:10055000002002F0B1FF4FF44874504B03221A7090
:10056000D6E702F09DFFC824F7E7002002F08AFFDB
:1005700038B1002002F0A0FF4FF47A64474B042208
:10058000EDE702F08DFF4FF4C874F7E7002002F0AA
:1005900079FF48B1002002F08FFF404B05221A700E
:1005A00040F6CD410022C2E702F07AFFF5E70020D5
:1005B00002F0ACFF394B06221A70002240F266614D
:1005C000B5E7002002F06CFF344B07221A700024BC
:1005D0008DE70120207002F099FFEEE701202070E6
:1005E00002F094FF00224FF40051A0E702F07FFFD9
:1005F0002A4B0C22EAE72A482A4E00F092FCD5F159
:10060000110504461CD0D8B9012D13D0C82045438C
:1006100021464FF400474FF47A704FF4FA620023FA
:10062000C5FB070114F043FA224601461C4800F0BE
:100630004FFC0446022002F033FF0123337056E7DB
:10064000022002F039FF0023F8E7FFF717FF134BF2
:100650001222BBE7FFF712FF002002F021FF0F4B31
:100660001322B3E7FFF70AFF012002F019FF0B4B3B
:100670001422ABE7FFF702FF002002F011FF012078
:1006800002F00EFF054B1522A0E702F030FF034BEE
:100690001D709CE724170020C01500202C17002097
:1006A0008015002011170020044B1B68DB0703D5C1
:1006B000034B1878FFF7F8BE704700BF20170020E3
:1006C0002C17002010B5002914BF0324002402F0C9
:1006D0004FFF800000F1A040D0F8002722F4403204
:1006E000C0F80027D0F8003743EA0443C0F80037C9
:1006F000002010BD032801D802F01ABF0020704767
:10070000044B1B6813F0010301D0FFF7CDBE184660
:10071000704700BF2017002038B51C4B18601C4BD9
:1007200010F00204054619601AD01A4B1A480E221E
:100730001A700F22DA7010229A7111225A72042153
:1007400040F2333200F03EFA044648B900F092FA23
:10075000044628B90146114A114800F0A7FB044697
:10076000EB0711D5012002F009FF6CB921460D4AB3
:100770000D4800F09BFB044630B9BDE838400B4AF9
:100780000B48012100F092BB204638BD2017002005
:100790002817002012170020308A0100750400007D
:1007A000548A0100A9060000588A0100D103000004
:1007B000508A0100032811D8012A0AD101290FD13A
:1007C00000F10E02D2B20D4B00EB40001A54002093
:1007D00070470129F7D0022904D049B1072070479A
:1007E0000022F8E7054B00EB400018444270EEE7AA
:1007F000024B00EB400018448270E8E7121700201B
:10080000032802D80121FFF75DBF0620704708B515
:10081000012202210020FFF7CDFF08B1072810D1E7
:10082000072202210120FFF7C5FF08B1072808D1E0
:1008300000210A220846FFF7BDFF10B1072808BFB4
:10084000002008BD0388102B10B502D0112B1ED03C
:1008500010BD1A4C2168B1B901220846FFF7AAFF62
:1008600008B1072824D1072202210120FFF7A2FFA7
:1008700008B107281CD1042202210020FFF79AFFAB
:1008800008B1072814D1236801332360E0E70B4A3D
:100890001368013B1360002BDAD1FFF7B8FF002883
:1008A000D6D0074B1B68002BD2D0BDE810401847AC
:1008B000034B1B68002BE6D09847E4E7381700206D
:1008C0003417002008B50020FFF79AFF08B106286A
:1008D00006D10120FFF794FF10B1062808BF0020C1
:1008E00008BD00000D4B10B518600C4629B1012061
:1008F000FFF700FF40B102232370094B1B6853B977
:10090000BDE81040FFF783BFFFF7F4FE08B10B23EB
:10091000F2E72070F1E7002010BD00BF341700207F
:10092000381700200DF0D0BD002108460DF080BD25
:1009300010F1360F0AD060B148F2165348F2115246
:1009400010F1380F08BF13461846704748F2145389
:10095000FAE70346F8E708B5084611460CF040FAF6
:10096000002008BD30B5044685B000200CF0F8F931
:10097000054678B9201D03900CF033F8064903981A
:1009800000952B462A460CF088F805B0BDE83040AB
:10099000FFF7CEBF05B030BD5709000008B50430E1
:1009A0000CF02AF80CF0FCF9002008BD08B5043062
:1009B0000CF007F9BDE80840FFF7BABF08B51146CB
:1009C00004301A460CF027F8BDE80840FFF7B0BF26
:1009D000C30710B507D4F023054A4008145C234030
:1009E0001943115410BD0901C9B20F23F4E700BF28
:1009F0005017002030B5094B1C78094B19680023AB
:100A00009C4202DC0022104630BD11F83350854272
:100A100001EBC302F7D00133F2E700BF3C1700201F
:100A20006017002013B504460191FFF7E3FF38B1CA
:100A300043682BB10199204602B0BDE81040184729
:100A400002B010BD034B044819680022490800F0A9
:100A50003FBA00BF40170020E015002010B5C0B21B
:100A6000FFF7C8FF044600780CF032FC63785A1E8A
:100A700053425341834208D1044BD3E9002313432B
:100A800003D1BDE81040FFF7DDBF10BD48170020BF
:100A900038B5334A43080446D35CC2074CBF1B0930
:100AA00003F00F030D46042B59D8DFE803F00322AF
:100AB0002A363900002952D00121FFF789FF002092
:100AC00000F04AFB0120A4F12003C4F12001254AD3
:100AD00020FA01F100FA03F30B43A040D2E90041F0
:100AE00020430B43C2E90003BDE83840002000F07A
:100AF00035BB002918BF02212046BDE83840FFF76A
:100B000067BF41B10321FFF763FF20460121BDE824
:100B10003840FFF787BF0121EEE701BB0421EBE777
:100B200009B10321E8E7FFF753FF29462046FFF705
:100B300079FF284600F010FB0120A4F12003C4F146
:100B40002001084A20FA01F100FA03F30B43A04008
:100B5000D2E9004124EA000021EA0303C2E738BDDC
:100B600050170020481700202DE9F041124E134F76
:100B700000243378A34208DC114BD3E9002313434C
:100B800018D0BDE8F041FFF75DBF3D6805EBC40834
:100B900015F834000CF09CFB98F801305A1E5342B3
:100BA0005341181A4142414115F83400FFF770FFD4
:100BB0000134DEE7BDE8F0813C170020601700201B
:100BC00048170020092AF7B505460C4616463ED9B7
:100BD0000CF0B6FAE8B11F4B1F481D601F4B204FA9
:100BE0001C70204B002110221E6014F0A1F81E4B37
:100BF00000200021C3E90001013CE4B20326FF2CE0
:100C00000DD11A4A1A48002103B0BDE8F04000F0A7
:100C10004DB90CF05DFA0028DDD003B0F0BD9DF8B1
:100C2000063015F834008DF8046005EBC40223F09B
:100C300007038DF8063001A993788DF805303A4600
:100C40000CF088FA013CE4B20028D8D0E5E7072090
:100C5000E3E700BF60170020501700203C1700207A
:100C60005D0A00004017002048170020690B0000B3
:100C7000688A010070B5084D084E00242B789C420C
:100C800001D3002070BD3368012113F834000CF04B
:100C9000D9FA0134F2E700BF3C17002060170020AA
:100CA0001FB50021039001AA44F20100CDE9011112
:100CB00000F004F805B05DF804FB000038B572B62A
:100CC0000AF0ECFF0AF03EFE0028FBD1104B114C5D
:100CD000114D1249E41AE408240444F001000AF01A
:100CE00079FFD5F8F030DB0700D500BE0C4944F0A1
:100CF00002000AF06FFFBFF34F8FEA68094B02F45E
:100D0000E0621343EB60BFF34F8F00BFFDE700BF0E
:100D1000B8880100E888010000ED00E06C8A01005D
:100D2000788A01000400FA0510B5D0E90243D1E940
:100D30000202A04272EB03032CBF0120002010BD71
:100D400008B50A4800F043FB094AD2E90031C0184F
:100D5000084BD3E9002341F10001904271EB0303FA
:100D600003D210F1807041F1000108BD001600208F
:100D700068170020E017002037B505460C460A48E2
:100D800001A901F0DEFA60B10570446001A90648CE
:100D900001F001FB18B1054800F01EFB002003B074
:100DA00030BD0420FBE700BFCC1700200016002058
:100DB000234B70B51E78044616B90026304670BD28
:100DC0000028FAD0FFF7BCFFD4E9022390429941F2
:100DD0002FD3002000F0C0F923692BB94FF0FF3268
:100DE0004FF0FF33C4E90223002000F0B7F9D4E943
:100DF00005309847002000F0AFF925696DB1D4E9BE
:100E00000212B2F1FF3F08BFB1F1FF3F0FD06918E6
:100E100042F10002C4E902123546002000F09EF9BA
:100E2000002DCAD00748214602F0ACFAC6E70025DB
:100E3000F3E7B3F1FF3F08BFB2F1FF3FBDD0F1E7E9
:100E400070170020948A010013B5114B11491868DE
:100E5000019008231048582201F03EFA044698B940
:100E60000E4A0F4801A900F0A3F9044660B90C48E6
:100E7000012100F08FFA01230A4A0948194600F0BF
:100E8000F1F9094B01221A70204602B010BD00BFD3
:100E9000908A010074170020CC1700207D0F0000FD
:100EA00000160020FFFF7F007017002030B56AB1E8
:100EB00003684FF0FF344FF0FF355A614A1E51422C
:100EC000C3E9024551411961002030BD0720FCE70C
:100ED000F8B50446002017460D4600F03DF9D4E968
:100EE0000223B3F1FF3F08BFB2F1FF3F15D1FFF777
:100EF00027FF281841F10001C4E902010126002062
:100F000000F02CF95EB12369A76103B12561214688
:100F10000020BDE8F840FFF72FBF0026EFE730467E
:100F2000F8BD38B50446002000F016F9D4E90223D4
:100F3000B3F1FF3F08BFB2F1FF3F1FBF4FF0FF32D9
:100F40004FF0FF33C4E90223012508BF002500202C
:100F500000F004F92DB121460120BDE83840FFF72B
:100F60000BBF284638BD401A20F07F407047000074
:100F7000014800F02CBA00BF001600202DE9F7430D
:100F8000064600F00FFA40B1624AD2E9003113F18F
:100F9000807341F10001C2E900310021304600F0C8
:100FA00010FA38B15C4C236823B12068FFF700FFCA
:100FB000002323600121304600F003FA20B1FFF73F
:100FC000BFFE564BC3E900015548534C01A901F03F
:100FD000F2F94FF0FF384FF0FF39A0B9DFF8448144
:100FE0004D4D404602F0E4F9002800F08580D0E93C
:100FF0000223B3F1FF3F08BFB2F1FF3F32D14046B9
:1010000002F0D0F9EDE70378012B20D0022B08D1B4
:10101000444D284602F0C6F9002877D0C0E902897D
:10102000F7E75BB94168D1E90223B3F1FF3F08BF9D
:10103000B2F1FF3F02D03B4802F0A4F901A93848C1
:1010400001F0E4F901A9364801F0B5F9C5E74168B6
:101050002368994202D100232360EFE7314802F070
:10106000AAF9EBE7296891B12968D1E90201824226
:101070008B412FD22B68D3E90223B3F1FF3F08BF86
:10108000B2F1FF3F03D02968404602F07BF94046A9
:1010900002F088F9D0E902490746FFF751FE201A0D
:1010A00069EB0109012879F1000318DBB0F5350F70
:1010B00013D3FFF75DFF1C4A02441C484FF496030C
:1010C000002100F0EFF890B92B6813B9304600F01A
:1010D000C1F82F6003B0BDE8F0832246EDE7134866
:1010E000002100F064F93846FFF762FE01E00D28A8
:1010F000F9D000232B6074E7074B1B68002BE9D164
:10110000304603B0BDE8F04300F0A8B8084B012218
:101110001A7093E768170020E8170020E0170020F6
:10112000CC170020948A0100FFFFB40000160020B5
:101130007017002072B6024A1368013313607047BB
:10114000EC170020034A1368013B136003B962B631
:10115000704700BFEC170020FFF7ECBFFFF7F2BFAE
:1011600003462AB110881A4619448A4203D17047AF
:101170004FF6FF70F7E712F8013B40BA80B25840D3
:10118000C0F30313584080EA0033580100F4FF50C5
:101190009BB25840E9E7435882B03BB1002343502B
:1011A00043580193019B012002B070471846FBE7AA
:1011B000F8B5204B4479204E43F824201F4A204B99
:1011C00006EBC4049B1A2279DB081B0432B143F0FE
:1011D00002001C490AF0FEFC0820F8BD02680C88D9
:1011E000C2F8084590F904508A7804795201002D1C
:1011F000D2B219DB14494F1987F8002301226D0977
:1012000004F01F0402FA04F441F82540427906EB89
:10121000C201012446F832000C7143F003000B496F
:101220000AF0D8FC0020D8E7094904F00F040A5559
:10123000ECE700BFF8170020F0170020B888010085
:10124000F8880100A08A010000E100E0C28A0100E4
:1012500014ED00E0036801221A6070470368012260
:101260005A60704773B501F15005AD000068ADB22A
:101270004FF480348C400026C0F80843C0F848433F
:10128000465101F5A8714559019522F07F42019D13
:1012900040F82120C0F844430BB1C0F8044302B029
:1012A00070BD00002DE9F74F0D4622F07F44026823
:1012B0004FF4803705F150068F408046B60002EBB0
:1012C0008500C2F84873B6B2C2F80873D2F80415A4
:1012D00099464FF0000BD0F84035C0F8401542F861
:1012E00006B05B1A9259009223F07F43012B009ABB
:1012F0004FEA850A0CD1264B4FF4806043F001037E
:101300009847D8F8003043F806B09B590193019BE9
:10131000D8F80010D1F80465C1F84473A31B23F07A
:101320007F43012B1CD11A4B05F5A875013443F0FE
:10133000010341F825404FF480609847D8F8003009
:10134000D3F804359E4209D1D8F800300020C3F804
:101350004473C3F8047303B0BDE8F08F0D20FAE7BF
:101360008A44C9F1FF13CAF84045D1F80405221A8E
:10137000013A22F07F4203F57F439342EED3002AE5
:10138000E2D10134CAF84045D1F804359842DAE791
:10139000E08A010003680222C3F8442309B1C3F8BC
:1013A0000423704700684FF48271FFF7F4BE4FF4D6
:1013B000803303FA01F10368C3F84813C3F8081334
:1013C000704750318900006889B2FFF7E4BE0368B6
:1013D000D3F804057047000090F90430002B09DBB6
:1013E0005A09012103F01F0301FA03F340320249B5
:1013F00041F82230704700BF00E100E0024B034A91
:101400001B681068184700BFF8170020F01700206D
:1014100070B5064D0646002455F8043B0BB1304626
:1014200098470134042CF7D170BD00BF0818002084
:101430004388033300EB830399420BD382884FF632
:10144000FF739A4208D0038833B18068431C584226
:10145000584170470220704701207047033080B226
:1014600040F2FE33984230B51FD8134B1A783AB980
:101470001C895D892C440444A4B2B4F5806F0AD958
:101480001A7DAAB99A8BDC8B2244024492B2B2F53F
:10149000806F0DD801220A801446142202FB043307
:1014A0005A8910445881002030BD48F20860FBE79B
:1014B00048F20660F8E700BF3C1800200B4A0C49D0
:1014C0005388142000FB0311CB6833B9042049680A
:1014D00010700122074801F055BB0749052313701E
:1014E00002238B80012209680023F3E720180020E3
:1014F0003C180020681500200419002007B50023BF
:1015000005490093054A09680548082301F0A0FA37
:1015100003B05DF804FB00BF04190020F48A010049
:101520006815002007B5002301460093034A0448CC
:10153000082301F08DFA03B05DF804FBEC8A01008A
:101540006815002013B500230C4600930146084A95
:101550000848042301F07CFA38B9074B142101FB39
:10156000043101230B7402B010BD48F20D60FAE79C
:10157000E88A0100681500203C18002037B50A48A9
:101580000A4B42689C881968538803250333057009
:101590009BB2002000909B0001EB8401044801F005
:1015A00057FA03B030BD00BF2018002004190020F6
:1015B0006815002010B50146044800F0C2FE1C2248
:1015C0000446002113F0B4FB204610BDF0180020A3
:1015D00068B10268084B9A4209D14068074B9842AB
:1015E00007D00133984214BF032001207047032025
:1015F00070470020704700BFDEC0ADDEFE011EF167
:101600002DE9F0410D460223154F2B80164600F5BB
:10161000805100F108044FF001088C420ED223687B
:1016200001330BD02046FFF703FF48B10EB186F817
:101630000080022809D14FF480632B80BDE8F0813F
:10164000A3683A68934200D93B602B8862880333D1
:1016500013442B806388033304EB8304DDE700BF6E
:101660003418002038B5144B14220D4602FB00300C
:101670002B68446804F58051A3B15C88033403EB04
:1016800084048C4215D22368013312D02046FFF720
:10169000CFFE012808D002280BD00028F1D12C6001
:1016A000012038BD0834ECE76388033304EB83047E
:1016B000E7E70020F5E700BF3C180020426873B55B
:1016C00004460D466AB3234BD9688A4229D31B6965
:1016D0009A4226D812F0030323D11F4900890989B1
:1016E00088421ED12068916888421AD11B484168FF
:1016F0008A4203D901F580518A420DD381698A4219
:101700000CD901F580518A4208D201222A80B3FA0D
:1017100083F0400902B070BD1A46F7E748F209634A
:10172000F5E700262E800196288801A9FFF79AFF89
:1017300030B92B8801339BB2012B2B80F3D9E9E719
:10174000019B226899689142EED16360024B1B892C
:101750002381DFE768150020201800203C180020B6
:101760002DE9F8431C461D4B1B7806460F461546CF
:1017700073B382B37CB3DFF86C804FF01409A38895
:10178000012B02D948F2096020E009FB03F318F8A5
:1017900003302BB9A0882146FFF764FF20B92060F1
:1017A000A3880133A380EAE723681EB199883288B1
:1017B0009142EFD11FB119883A889142EAD19A68D3
:1017C000C5E90023064B1B892B810020BDE8F88367
:1017D00048F20160FAE748F20460F7E718180020C1
:1017E000201800203C18002008B5074B5888191D08
:1017F000FFF738FF18B1BDE80840FFF7BFBEBDE8EE
:101800000840FFF75BBE00BF201800202DE9F0471D
:101810009F4FDFF8A08288B006463B6823B99D48F9
:10182000414600F0C8FD38603D6829784B1E052B05
:1018300007D8DFE813F020007400740006010601E9
:101840005D0148F20E641422002103A813F070FA1F
:1018500041F61D539C4208BF00243B6804941A784B
:10186000023A042A00F2FC81DFE812F0DD01E9010E
:101870000B0213021A022EB1874B00225A604FF45A
:101880000644E0E72B79032B1CD8DFE803F01402B1
:101890002A35824A1378022B1AD0137D022B4FF07F
:1018A000010317D114214B43D1180020D0544868AC
:1018B000FFF738FE03E001232B71FFF71FFE00281E
:1018C00000F0B980744B00225A6048F20D64BAE708
:1018D0000023E7E7704A13700023536041F61D545C
:1018E000B1E76F496F48002302222B718A80096893
:1018F000012201F047F9E2E76B4B684C5B88684ACC
:1019000014214B43E11800262E714D6810681560B4
:10191000958848600D810221E6549180C8E7B5F8AA
:1019200014A0AA7DDFF87491AEB1022AEB8806D923
:10193000142101FB0A91DA1C088902440A8114224D
:1019400002FB0A99C3F57F43B9F80A20FD3313441B
:10195000A9F80A3093E7142303FB0A9318895C68FB
:1019600004EB8004062A69D8DFE802F0274E3644EB
:101970001D5A040041F61D54AA7DEB88022A06D99F
:10198000142101FB0A91DA1C088902440A811422FD
:1019900002FB0A99C3F57F43B9F80A20FD331344CB
:1019A000A9F80A304FE74148414900234360AB6939
:1019B0000360FFF783FE00285BD00223AB75002392
:1019C00000930423EA182146364801F041F8002824
:1019D00031D048F20D64CFE72B69002B14BF0323ED
:1019E0000123AB750023009305F10C02042304F1DD
:1019F0000801E9E70123AB750022EB8800922A6910
:101A00009B0004F10C01DFE703290CBF052306232B
:101A1000AB7500230093042305F10802E118D3E716
:101A20000623AB75224B1988204B5868FFF78AFDB7
:101A300004460028A0D108B0BDE8F08748F20E6443
:101A40009AE7002E7FF41BAF2B79012B34D0022BA9
:101A50003FF444AF002B7FF4F4AE02232B710DF161
:101A60000A01EB68039303A8CDE90466FFF726FE9D
:101A700010B948F20964E6E60498BDF80A108388B4
:101A8000EB8003882B81FFF75DFD044629E000BF52
:101A900038180020F0180020181800203C180020EA
:101AA000041900206815002020180020FC170020D1
:101AB0001019002030180020DFF8009203AA4B46CE
:101AC0003146A81DFFF74CFE044670B9B9F8041062
:101AD0000498FFF737FD044648F209639C423FF43F
:101AE000FDAE002C7FF4AFAEA5E7C9E90066F3E7D1
:101AF000002E7FF4C4AE6C4B1A7BBAB11E731A78F9
:101B0000013A062A3FF69DAE01A151F822F000BF2E
:101B1000BB1B0000E11B0000FF1B0000051C0000B8
:101B2000431800000B1C00001D1C00001A78072A37
:101B3000E5D801A151F822F0591B0000FF1A00005E
:101B4000FF1A00007F1B0000931B0000B71B000062
:101B5000B71B00007B1B00001A89544901321A810F
:101B600000225A801A730A78B2FA82F252099A72E3
:101B70000A7DB2FA82F25209DA72012207E04C4978
:101B800058688A884088033202448A8002221A7088
:101B9000B5E75C88454A4649142505FB04220868D8
:101BA000546850608888108102200C608880002171
:101BB00011740622EBE70722E9E79A7A32B9DA7A5A
:101BC0008AB900221A705A805A6087E63749002283
:101BD0009A72CA68002AF2D1097C0029EFD05A8093
:101BE000FFF702FE51E70022DA72304A116A00293B
:101BF000E7D192F82420002AE3D00122EFE7FFF793
:101C0000BDFC42E7FFF75AFC3FE75A88274B1421F7
:101C100001FB02335868FFF785FC36E700225A6063
:101C2000FFF76CFC31E701228DF80C201A89ADF822
:101C300018209A88DB68ADF81A20059310E002227C
:101C40008DF80C201A89ADF818209A88ADF81A2062
:101C5000DA689B7D05929A1F534253418DF81C30E0
:101C600003A8FFF7D5FB0026414612483E6000F06E
:101C7000CDFB1148012100F083FC00287FF4CDAD9D
:101C8000D9E603228DF80C20DA88ADF818201A89DD
:101C9000D0E704228DF80C20DB88ADF81830DFE7A0
:101CA00005238DF80C30DBE7201800203C180020BD
:101CB00004190020F0180020001900201419002039
:101CC0004068FFF7A3BD000008B50548012100F0FA
:101CD0003FFC18B9BDE80840FFF798BD08BD00BF3C
:101CE000001900202DE9F3419846374B1B78064632
:101CF0000D46002B5CD000295DD009884FF6FF739C
:101D000099425BD06B88002B58D06B689B0758D1E9
:101D10004AB92F890DF102013846FFF79FFB30B118
:101D200002B0BDE8F08113885788ADF8023001A8F1
:101D3000FFF740FC044660B9BDF80220234B142194
:101D400001FB023358890338C01B588148F20760F1
:101D5000E6E780F8008000238375BDF802308382B7
:101D60006B68036101211A4800F0FEFB2B88238178
:101D7000B8F1030F6B88A38004BF0423A3754FF051
:101D8000000508BF3368E06008BFA3611148E78021
:101D9000658101A900F0FFFA36B1E36833600E4BAC
:101DA00075601B89B5723381FFF78EFF0020B7E79E
:101DB00048F20160B4E748F20460B1E748F203601A
:101DC000AEE748F20260ABE7181800203C1800208C
:101DD00034180020F01800202018002008B5034611
:101DE00007480268042A08D00168064A42F82130F0
:101DF000012100F0B9FB002008BD48F20B60FBE7B1
:101E00000C190020081800202DE9F04FDFF814828B
:101E100089B01422002103A812F08AFF98F800303C
:101E200003F0FF0201923BB103A8FFF7F1FA00278C
:101E3000384609B0BDE8F08F08F1040000F0ACFBB3
:101E40000028F4D14FF010234FF080525B691169E4
:101E50005269DFF8D4A1581C08BF02FB01F3CAF88D
:101E600010306949A3F5405300225046CAF80C309F
:101E700000F0BCFD07460028DAD11C236349644802
:101E8000DFF8A8B18C2200F027FA0323B9463D46BB
:101E900000933C46DAF80C604E443046FFF798FB5E
:101EA000012867D0032817D000283DD159494FF0A9
:101EB000140C0CFB04FC01EB0C0201F80C00566046
:101EC0000CF110020CF1080C0A4430466144FFF793
:101ED00097FB45F002054AE03268531C02D04E4B96
:101EE0009A4239D1321D06F580511068013033D144
:101EF00004329142F9D1DBF800203AB902220123E1
:101F0000CBF80060ABF8042001930BE0142262438D
:101F1000404B022099189854404A4E605480013436
:101F20000881A4B245F0010509F58059B9F5405F73
:101F3000B0D1009B012B98BF0025EDB2022D03D03C
:101F4000062D36D0002D3ED1002388F8003048F20F
:101F50000A67C8F804306BE7009B2E495A1E93B2FB
:101F60001422624388180093466003208854013489
:101F7000A4B2D9E7019B6BB1264B14226243991896
:101F800002209854DBF800204A60244A08815480DB
:101F90000134A4B200222249CBF800603046FFF79A
:101FA0002FFBBBF80420022A0CBF04220822154391
:101FB000BAE7012388F8003003A80023C8F80430EA
:101FC000FFF726FA34E702A8FFF7F4FAC8B10123B5
:101FD000013D03700A2D09D8DFE805F00608060860
:101FE000070807080F110F000023037102A9084812
:101FF00000F0D1F9FFF768FE1AE70323F5E70223A3
:10200000F3E748F2076713E7F08C0100641800203B
:10201000F01800203C180020DEC0ADDE20180020A3
:102020000819002018180020681500200419002045
:1020300073B50D460446C8B1C1B10DF10601FFF7F5
:102040003DFBB0B1BDF806300B486668142202FBB8
:10205000030001210C3000F087FA63682E600C3316
:102060006B600123A372002002B070BD48F20460CF
:10207000FAE748F20960F7E73C18002013B5044678
:10208000A8B10DF10601FFF719FB98B1BDF80620C4
:102090000B4B142101FB0233DA6872B1A27A62B1F0
:1020A000DA680020013ADA60A07202B010BD48F28E
:1020B0000460FAE748F20960F7E748F20560F4E7E0
:1020C0003C18002002230022FFF70CBE18B10323A6
:1020D0000022FFF707BE48F204607047114B1B78DF
:1020E00013B50446ABB14FF6FF73984214D001A864
:1020F000FFF760FA98B10523037001230371C480D0
:1021000001A9094800F047F9FFF7DEFD002002B001
:1021100010BD48F20160FAE748F20360F7E748F2C1
:102120000760F4E718180020F01800200F4B1B7808
:1021300007B5A3B101A8FFF73DFA98B106230370D4
:1021400001A90B4800F027F90A4B1A780AB10122BD
:102150001A73FFF7B9FD002003B05DF804FB48F2E5
:102160000160F9E748F20760F6E700BF18180020A1
:10217000F01800202018002007B5ADF80600ADF8D3
:1021800004100DF1060001A9FFF7EAFA03B05DF8AB
:1021900004FB07B51346ADF806000A4600200DF112
:1021A0000601FFF7DDFA03B05DF804FB07B513463F
:1021B000ADF806000A460DF106000021FFF7D0FA3F
:1021C00003B05DF804FB20B119B103680B60002077
:1021D000704748F2046070472DE9F84F3C4B1B787C
:1021E0000446002B6DD000286ED0DFF8E890122254
:1021F000002112F09DFD032323804FF0000A4F467B
:1022000014264FF00108D9F80410B9F80AB0B9F84B
:1022100008500846FFF7DCF9032808BF23886288C6
:1022200004BF03F1FF33238006FB0A735D44DB68C0
:102230001344638023899B446389A4F808B0ADB23A
:102240002B446381C5F58065A389ADB2AB4238BF2D
:10225000A58101F1080501F58051A94229D92B6812
:10226000013326D02846FFF7E3F801280AD00228D8
:1022700015D00028F1D1A3880133A3800AE04FF0E4
:10228000010AC0E7E3880133E380E3896A88033306
:102290001344E3816B88033305EB8305DDE7E388B3
:1022A00084F810804D1BE189013301EBA501E38027
:1022B000E18109F11409BAF1000FE0D00020BDE876
:1022C000F88F48F20160FAE748F20460F7E700BFD0
:1022D000181800203C18002010B561B1B2FBF3F4CF
:1022E00003FB1424A4B244B9C0E9001484608281C1
:1022F000C381204610BD0E20FCE70920FAE782B01A
:1023000050E8022FC188B2EB324F4FF0000317BFE5
:1023100092B241EA014142EA014104E04268B2EB73
:10232000324F08BF012340E80212002AE8D18DF89D
:1023300007309DF80730002B0CBF1120002002B0A1
:10234000704737B550E8013F9DB2C4892544848960
:10235000A54228BF2D1B0489A54202BFBFF32F8FC2
:10236000002207E0C5EA030540E80154002CE9D14A
:102370004FF001028DF803200193019A0A609DF845
:10238000031001F0FF0321B1006810FA82F003B0DE
:1023900030BD1846FBE70A884B889A4209D150E8BD
:1023A000012FC2EA024240E80123002BF7D10120AD
:1023B00070470020704737B550E8023F1FFAA3F579
:1023C000C488A54202BFBFF32F8F00220DE0C4894D
:1023D00025448489A54228BF2D1BC3EA054540E852
:1023E0000254002CE8D14FF001028DF80320019334
:1023F000019A0A609DF8031001F0FF0321B1006803
:1024000000EB124003B030BD1846FBE70A884B884A
:102410009A4209D150E8022FC2EA224240E8022340
:10242000002BF7D1012070470020704701F01F02F8
:102430004B090121914000EB830000F065B84B0986
:1024400010B501F01F040121A14000EB830000F052
:102450004FF8E04000F0010010BD01F01F03012221
:102460009A404B0900EB8300D14300F065B84B095B
:1024700001F01F0150F82300C84000F00100704730
:102480002DE9F0474F1E7F0980460E460137002593
:1024900058F8254008EB8509E44394FAA4F4B4FA0B
:1024A00084F44FEA451A202C06D10135AF42EFD80B
:1024B00034462046BDE8F0875444A642F5D921466B
:1024C0004046FFF7BCFF0028F3D0D9F80040E443B2
:1024D00094FAA4F4B4FA84F4E5E710B5034653E89B
:1024E000000F0A4643E8002494F0000FF7D110BD16
:1024F00010B5034653E8000F40EA010243E8002408
:1025000094F0000FF6D110BD10B5034653E8002F2C
:1025100042EA010043E8000494F0000FF6D110BD38
:1025200010B5034653E8000F00EA010243E8002417
:1025300094F0000FF6D110BD10B5034653E8002FFC
:1025400002EA010043E8000494F0000FF6D110BD48
:1025500010B5034653E8000F00EB010243E80024E6
:1025600094F0000FF6D110BD10B5034653E8002FCC
:1025700002EB010043E8000494F0000FF6D110BD17
:1025800010B5034653E8002FA2EB010043E8000416
:1025900094F0000FF6D110BD0121FFF7A9BF012172
:1025A000FFF7B2BF0021FFF7BBBF10B590B1D0E974
:1025B000012301689B1ADBB20A60013BDBB2FF2BEF
:1025C000026802D10020107110BD11684C1C14600B
:1025D0000B70F2E70E20F7E738B504460020FEF74F
:1025E000BBFD226863681168994213D9481E1060C8
:1025F00011F8013CE568218A01FB0355A3681179B4
:102600001B1ADBB2994200D213710020FEF7A6FD1F
:10261000284638BD0025F8E738B5054600200C46A9
:10262000FEF79AFD2A681368591C1160E968641A5C
:10263000298AB4FBF1F41C70BDE838400020FEF795
:102640008DBD826810B504462AB1436901680069EE
:1026500098470023A36010BD0EB403B5039921B1C0
:1026600004AB01AA019300F077F802B05DF804EB27
:1026700003B070470A2938B504460D4602D10D2132
:10268000FFF7F8FFA3682268591CA160D554D4E96C
:1026900001329A4204D32046BDE83840FFF7D1BF4B
:1026A00038BD00002DE9F84F9846DDE90A4315468C
:1026B00082460F460A464FF00109AA420FD2C14591
:1026C00038BFC14613F0010B01D16CB900240126BB
:1026D000B8F1010F1BD908F1FF386E43F8E709F193
:1026E0000109B2FBF5F2E8E79B070ED5B8F1000F40
:1026F0000CBF30262026A145E9D2013C3146504688
:10270000FFF7B8FF002CF6D1E0E72026F3E7B7FB90
:10271000F6F39D42E1D9DFF83C80B7FBF6F3504673
:1027200018F8031006FB1377FFF7A4FF3346AB42FC
:10273000B6FBF5F6F1D2BBF1000F02D00CB1A1450A
:1027400001D3BDE8F88F20215046013CFFF792FFEE
:10275000F4E700BF058B01002DE9F74F054617464A
:102760008846002900F03E8118F8011B49B92B7BEF
:10277000002B00F03781284603B0BDE8F04FFFF78B
:1027800060BF252940F0B780002698F800302D2B37
:10279000424608F1010823D0302B24D02B2B25D022
:1027A00000242A2B02F1010123D13B681A1D1B686A
:1027B0003A601C440A4613782E2B26D101324FF082
:1027C000000A104610F8011BA1F1300CBCF1090FF2
:1027D0001DD80A2303FB0A13A3F1300A0246F0E7CF
:1027E00046F00106D1E746F00206CEE746F00406C1
:1027F000CBE711F8013CA3F130000928DBD80A220D
:1028000002FB0434303C0A46CBE74FF0000A12F8D2
:10281000011B01F0FB0068289046F8D0782909D800
:102820006F290CD8632962D022D8252963D0582972
:1028300000F0888098F80030002B95D197E7703928
:102840000829F7D801A353F821F000BFBF290000E1
:1028500035280000352800005529000035280000E3
:1028600033290000352800003528000045290000E4
:10287000642901D06929DDD13A68D2F80090111D90
:1028800089EAE9723960A2EBE9724FF0010B092A7B
:1028900035DCD34538BFD3462CB1B9F1000F01DB8D
:1028A000720700D5013CB30702D5BAF1000F03D07F
:1028B000F00701D44CBB0024B9F1000F2DDAC9F1A7
:1028C00000092D212846FFF7D5FE06F00302022A53
:1028D00004D1BAF1000F01D11CBB0024CDE90046A0
:1028E00053460A2249462846FFF7DCFEA2E73B682A
:1028F0001A1D19783A602846FFF7BCFE9AE70A23AA
:102900000BF1010BB2FBF3F2C1E7A345D4D22021B6
:102910002846013CFFF7AEFECCE77107D5D52B2149
:10292000D0E7A345DAD230212846013CFFF7A2FECA
:10293000D2E73968CDE900460A1D3A6053460A22BB
:102940000968D0E739680A1D3A60CDE90046534668
:102950001022F5E73B681A1D3A6016F00106D3F81D
:10296000009024D1B9F1000F03D0484612F035FA97
:102970000646B4421DD809F1FF3919F8011F002994
:102980003FF458AF2846FFF775FEF6E728460136B4
:10299000FFF770FE19F806100029F7D1A642BFF420
:1029A00049AF20212846013CFFF764FEF6E70026E8
:1029B000F0E720212846013CFFF75CFED9E73B68A1
:1029C0001A1D3A60302128461C68FFF753FE782113
:1029D0002846FFF74FFE00220823CDE900322146AA
:1029E000102280E703B0BDE8F08F00BF13B50B469F
:1029F000114680B9104B1148114AC01A0E23C00865
:102A00000093104B0004104940F0010009F0F9F860
:102A10000E2002B010BD4BB9074B08480B4AC01A34
:102A2000C0080E2300930004064BECE703601B680C
:102A300002B0BDE810401847B8880100288901009D
:102A4000158B0100D18C01001A8B0100498B01000C
:102A50002DE9F743DDF8288088B93E4B3E483F4AD0
:102A6000C01AC0080E243E4B009400043D4940F0BB
:102A7000010009F0C6F8204603B0BDE8F0834AB96A
:102A8000344B3548384AC01AC0080E24344B0094E1
:102A90000004EBE7D0F800E0BEF1000F09D12D4BA8
:102AA0002D48324AC01AC00808242D4B0094000457
:102AB000DCE74BB9274B28482D4AC01AC008092427
:102AC000274B00940004D1E74568D5F80490B3FB88
:102AD000F9F509FB15354DB11E4B1F48254AC01AA3
:102AE000C00809241E4B00940004BFE78D0709D0DD
:102AF000184B1948204AC01AC0081024184B0094DB
:102B00000004B3E712F0030F09D0124B12481B4A1E
:102B1000C01AC0081024124B00940004A6E7C56830
:102B2000A9420DD34D1EEC180569AC4208D8CDF86A
:102B30002880DEF80C40A44603B0BDE8F0436047AF
:102B4000044B05480E4AC01AC0081024044B0094D8
:102B500000048BE7B888010028890100158B01006B
:102B6000BE8C01001A8B0100978B0100438B010082
:102B7000568B01009D8B0100C78B0100DF8B01008C
:102B8000028C0100F7B580B92A4B2B482B4AC01A9A
:102B9000C0080E242A4B009400042A4940F001008A
:102BA00009F02FF8204603B0F0BDD0F800C0BCF10A
:102BB000000F09D11F4B2048234AC01AC00808241F
:102BC0001F4B00940004E8E74AB91A4B1A481F4A01
:102BD000C01AC00809241A4B00940004DDE74568B8
:102BE000D5F800E00EF1FF350D4209D0114B124827
:102BF000174AC01AC0081024114B00940004CCE7F7
:102C0000C568A9420CD34D1E0EFB02540569AC42A7
:102C100006D8DCF81040A44603B0BDE8F040604799
:102C2000044B05480B4AC01AC0081024044B0094FA
:102C30000004B2E7B888010028890100158B010063
:102C4000AB8C01001A8B0100438B0100568B0100F5
:102C5000298C01004F8C010070B503689E6886B016
:102C600004460D466EB114220021684612F060F849
:102C7000A3680593237901952BB1012B0DD06846EC
:102C8000B04706B070BD01238DF800302369029370
:102C9000E368039363690493F1E702238DF800303E
:102CA000E3681B030293F5E708467047002070476E
:102CB000024B187A003818BF01207047B81900205D
:102CC000034B187A0122B0FA80F05A744009704719
:102CD000B819002008B510461A4612F000F8002076
:102CE00008BD000008B514220021044812F020F8A5
:102CF0000348FFF704FB002008BD00BFB8190020FF
:102D0000A819002010B5094C094B43602046FFF775
:102D100043FC40B911F0F2FC064920741C2306481C
:102D20008C22FFF7D9FA002010BD00BFB81900208F
:102D3000E48C01001C190020A819002038B5234C90
:102D4000234D237A3BB923492348FFF734FB2860FE
:102D500008B9606038BD022323722B681A7972B1FA
:102D6000012A24D028680321FFF776FF002323726D
:102D7000636018491848BDE83840FFF747BBD3E9FE
:102D80000520121AB2F5805FD3E9031328BF4FF470
:102D900080529208012A014438BF0122184407F0EA
:102DA0008FF950B11128DDD101232372D2E7D3E985
:102DB0000303184407F06EF9F3E7237C002BC9D115
:102DC000BDE83840022000F009B800BFB819002063
:102DD000D0190020CC190020A819002038B5234CA8
:102DE000237A002B41D0022B09D1032830D0204B6D
:102DF00000221B68E2601A793AB1012A22D0637C72
:102E00007BBBBDE83840FFF799BFD3E905128D1AA7
:102E1000B5F5805F94BF521902F580529A619142D4
:102E2000EDD102284FF0000308BF19462372104B62
:102E300018BF0D211868FFF70FFF0E490E48FFF766
:102E4000E5FADCE71A6901321A615B699A42E7E741
:102E5000E3680133082B01D8E360D0E70023E36087
:102E6000DFE7BDE8384011F039BC38BDB8190020A3
:102E7000D0190020CC190020A8190020831E012B96
:102E800001D8FFF7ABBF704700F0FD03012B08D15D
:102E9000044B00225A74421E504250411874FFF7EE
:102EA0004DBF7047B819002010B5064C201DFFF724
:102EB00073FB28B9637C1BB9BDE81040FFF73EBF28
:102EC00010BD00BFB81900202DE9F34180460D4622
:102ED000104801A916461F46FFF733FA0446B0B161
:102EE00018220021043011F023FF2D0B0123237140
:102EF00001A90848C4F80080A760E5606661FFF793
:102F00004AFAFFF7D1FF002002B0BDE8F0810420AB
:102F1000FAE700BFA81900202DE9F34180460F46CB
:102F20000F4801A916461D46FFF70BFA0446A8B143
:102F300018220021043011F0FBFE089BA36001A9B8
:102F4000C4E903670648C4F800806561FFF723FA07
:102F5000FFF7AAFF002002B0BDE8F0810420FAE7E5
:102F6000A81900202DE9F84FB0F806A04579D2F84D
:102F700000B09DF828900AFB05F5043D88460BEB50
:102F80000301A94203F1040488BFA5EB030BB4FBC2
:102F9000FAF607460AFB1644C2F800B04EB9AAEB8F
:102FA00004055D4528BF5D46BBF1000F04D1BDE8B7
:102FB000F88F3F68013EF1E7043408EB06003C441B
:102FC0002A46B9F1000F0DD02146ABEB050B11F0ED
:102FD00086FEDA452E443F6855464FF0000428BF70
:102FE0005D46E1E701462046EFE7FFF7DEBAF8B5B8
:102FF00046790146721E0546002393422D6803D38D
:103000000024A64202D8F8BD0133F6E70F6828462F
:10301000FFF702FB01343946F3E72DE9F843068A4E
:10302000CD1C0746FFF7D8FA043E35440446B5FBED
:10303000F6F5F0B14FF48073EDB28380C680013DA8
:10304000076081464FF00008A84512D23846FFF7C6
:10305000C3FA064648B163790133637108F1010888
:10306000C9F8000007608146EEE72046FFF7BFFF82
:1030700034462046BDE8F88301210430FFF774BAD6
:1030800010B5012104460430FFF77AFAC0B220B926
:103090002046BDE81040FFF7AABF10BD1FB5039240
:1030A0000022009203AAFFF75DFF05B05DF804FB64
:1030B0001FB503920122009203AAFFF753FF05B048
:1030C0005DF804FB064B10B500241C70054B1C601A
:1030D000BFF35F8F0449054800F03EF9204610BD5C
:1030E000DC190020E01900201C8D0100D4190020FB
:1030F00008B50020FEF730F8F1EE103A23F09F03F8
:10310000E1EE103ABFF35F8F054B4022C3F88421F4
:103110000020FEF723F820BF40BF20BF08BD00BF3E
:1031200000E100E0026813685268934291BFD01A30
:1031300080680130801888BFC01A7047F8B51546FE
:103140000268176816685268964284BF8268013226
:10315000961B0B46C2684168B542044607FB021144
:103160000BD86A43184611F0BAFDA3683D449D424E
:1031700088BF002523681D60F8BD06FB02F73A46AC
:10318000184611F0ACFDE2686168AD1B6A43384433
:1031900011F0A5FDEEE7036881681A685B688B4251
:1031A00034BF01330023D31A58425841704770B5D9
:1031B000044600200D46FDF7CFFF2046FFF7EBFF4A
:1031C00010B1237C002B3BD12368A1685E685A684C
:1031D0008A4234BF013200225A6028B11A688A42FA
:1031E00034BF013200221A60E2686368511E072969
:1031F00020D8DFE801F004101F141F1F1F182A78C1
:103200009A552046FFF78EFF23689A68824200D2C3
:103210009860002415E02A8823F81620F1E72A6830
:1032200043F82620EDE7D5E9000103EBC603C3E927
:103230000001E6E7294602FB063011F050FDE0E709
:1032400004240020FDF78AFF204670BD37B50546EF
:103250000191144682B10020FDF77EFF2846FFF75A
:1032600061FFA04201990AD322462846FFF766FF74
:1032700000240020FDF772FF204603B030BD052476
:10328000F7E710B504460020FDF766FF236800202D
:10329000186058609860BDE81040FDF75FBF10B53A
:1032A00004460020FDF758FF2046FFF73BFF044689
:1032B0000020FDF753FF204610BD036818685B68C7
:1032C000C31A58425841704770B5054600200C4655
:1032D0001646FDF741FF2846FFF7EFFF002830D1E3
:1032E0002B6819682EB91A68A868824238BF561C24
:1032F0001E60EA686B68501E07281CD8DFE800F0E3
:10330000040C1B101B1B1B145B5C2370002400208F
:10331000FDF724FF204670BD33F811302380F5E718
:1033200053F821302360F1E703EBC103D3E9002315
:10333000C4E90023EAE701FB0231204611F0CFFC8B
:10334000E4E70524E3E7836800225A60C3E9042226
:103350009A60DA601A6070470B684A68436093426B
:1033600008BF0023016008BF43607047436843B152
:103370000268916852680B449342436004BF002383
:103380004360704770B5446806460D46206818B122
:10339000B3682946984718B923682B60256070BD2B
:1033A0002468F3E74368186808B102681A60704738
:1033B0004368186870474368186800B970478842C6
:1033C00003D102681A600120704703460068F4E7E1
:1033D00010B50D49A1F59472914201D800200FE07B
:1033E0008C1AE30F03EBE4035B1002EBC30452F807
:1033F0003330834205D802D204F10802ECE760685A
:1034000010BD2146E8E700BF2892010008B5FFF78C
:10341000DFFF024B002808BF184608BDEB900100F3
:103420000B7B23B14B6803600023037170470B686B
:1034300003600123F9E703684A68896810B5D41A64
:103440008C428BBF5B1800230360026098BF03713E
:1034500010BD03680A68896810B59C1A8C428BBF3E
:103460005B1A01230360026098BF037110BD0379EA
:1034700010B504461BB1FFF7DEFF206810BDFFF753
:10348000E8FFFAE7054A4FF0A043105CD3F8043593
:1034900023FA00F0C04300F0010070472C920100B5
:1034A000044B1A5C012393404FF0A042C2F80C3544
:1034B000704700BF2C920100044B1A5C012393401B
:1034C0004FF0A042C2F80835704700BF2C920100AF
:1034D00008B50020FFF7F0FF0120FFF7EDFF022005
:1034E000FFF7EAFFBDE808400320FFF7E5BF08B596
:1034F0000020FFF7D5FF0120FFF7D2FF0220FFF7E2
:10350000CFFFBDE808400320FFF7CABF074A4FF0CE
:10351000A041105CD1F804350122824022EA030068
:103520001340C1F80805C1F80C3570472C92010012
:10353000054A4FF0A043105CD3F8103523FA00F091
:10354000C04300F00100704728920100072809D00D
:10355000082809D0092809D010280CBF03204FF0F3
:10356000FF307047002070470120704702207047ED
:10357000014B185C704700BF28920100C20708B5D4
:1035800001460CD54FF0A0430322C3F83427C3F8FB
:103590003827C3F83C27C3F85027FFF799FF8B075C
:1035A0000AD54FF0A0430C22C3F81C27C3F82027EC
:1035B000C3F82427C3F8402708BD000010B5202217
:1035C00000210A4811F0B4FB094B0A4800242146A7
:1035D000C3E90044302211F0ABFB21460648BDE8A8
:1035E00010404FF4907211F0A3BB00BF341B0020B9
:1035F000541B0020E4190020141A0020F0B50A4CD6
:1036000000222546A37843B9242454432E190127C8
:103610002853B77018460A60F0BD0132082A04F139
:103620002404EFD10420F7E7141A0020084A30B52B
:103630000023242404FB03F18D5A854203D10A445C
:103640000020907030BD0133082BF3D10520F9E73D
:10365000141A002010B5094A00231488844205D1A9
:103660009478012C02D10B60002010BD0133082B8F
:1036700002F12402F1D10520F7E700BF141A00205F
:1036800030B560B1094A0023144652F8041B1D46A8
:10369000013309B1814203D144F82500184630BDF9
:1036A000082BF2D14FF0FF30F9E700BF341B0020A8
:1036B00030B1044B421E002153F8220043F822107F
:1036C000704700BF341B002010B550B1054A0823D5
:1036D000002152F8044B844208BF42F8041C013B0D
:1036E000F7D110BD341B002010B5054C236833B151
:1036F00018B100211846FFF7DBFF0023236010BD3F
:103700005C1B0020F0B50A4C00222546A37843B983
:103710000C2454432E1901272853B77018460A6009
:10372000F0BD0132082A04F10C04EFD10420F7E7C0
:10373000601B0020084A30B500230C2404FB03F171
:103740008D5A854203D10A440020907030BD013368
:10375000082BF3D10520F9E7601B002010B5094ABA
:1037600000231488844205D19478012C02D10B6087
:10377000002010BD0133082B02F10C02F1D105200D
:10378000F7E700BF601B00201FB5074A03AB00939B
:10379000D2E9002301F036F908B1FDF781FA039868
:1037A00005B05DF804FB00BFC01B002037B5044620
:1037B0000D460DF10601204607F0F0FD0028F8D176
:1037C00023681870BDF80630013B2B6003B030BD94
:1037D00007B501AA01F0A5F808B1FDF761FA019853
:1037E00003B05DF804FB000007B501AA01F0CEF8B4
:1037F00008B1FDF755FA019B1BB9019803B05DF8BC
:1038000004FB054B9A78002AF7D01888FFF792FF3F
:103810000028F2D0F2E700BFC01B002007B501AAC4
:1038200001F0D0F908B1FDF73BFA019803B05DF85B
:1038300004FB0000F0B585B003AF0C4606463946E0
:1038400002A81546FFF7B2FF0B4BC3E90045029BE8
:10385000009701332A462146304601F09BF808B113
:10386000FDF71EFA0399054A02980131039189B2C6
:1038700007F006FE05B0F0BDC01B00208937000030
:1038800007B5FFF79BFE01A96846FFF78FFF009879
:1038900001A9013001F02EF808B1FDF701FA0199F4
:1038A000044A00980131019189B207F0E9FD03B0A3
:1038B0005DF804FBD137000030B585B00C460546F5
:1038C00002A901A8FFF772FF2CB303A92846FFF74E
:1038D00019FFF0B90399114BA2880C2000FB0133AA
:1038E0001A8122685A600E4B01221D809A70019A3B
:1038F00002AB01322146284601F018F808B1FDF765
:10390000CFF90299074A01980131029189B207F073
:10391000B7FD05B030BD024B9C70E8E7601B00208E
:10392000C01B0020E937000037B504460D46684645
:1039300001A9FFF73BFF009A01AB0132294620465F
:1039400001F0A2F808B1FDF7ABF90199044A00981B
:103950000131019189B207F093FD03B030BD00BF82
:103960001D38000007B501AA01F029FB08B1FDF7D9
:1039700097F9019803B05DF804FB00001FB5074AF2
:1039800003AB0093D2E9002301F09EFC08B1FDF7E0
:1039900087F9039805B05DF804FB00BFC81B002041
:1039A00007B5064A01AB126801F056FB08B1FDF7F6
:1039B00077F9019803B05DF804FB00BFC81B002035
:1039C00007B501AA01F0F4FC08B1FDF769F9019807
:1039D00003B05DF804FB07B501AA01F08CFB08B148
:1039E000FDF75EF9019803B05DF804FB07B501AA85
:1039F00001F0FAFD08B1FDF753F9019803B05DF845
:103A000004FB07B501AA01F02BFC08B1FDF748F94A
:103A1000019803B05DF804FB07B501AA01F0FAFCB8
:103A200008B1FDF73DF9019803B05DF804FB07B557
:103A300001AA01F029FE08B1FDF732F9019803B09F
:103A40005DF804FB13B50A4C00230193226801AB17
:103A500001F066FE08B1FDF723F9019B13B9019847
:103A600002B010BDA088FFF7E1FD0028F7D0F7E70E
:103A7000C81B002007B5074A00230193126801AB59
:103A800001F060FD08B1FDF70BF9019803B05DF896
:103A900004FB00BFC81B002007B5002301AA019347
:103AA00001F0B4FA08B1FDF7FBF8019803B05DF836
:103AB00004FB07B5002301AA019301F069FB08B1DB
:103AC000FDF7EEF8019803B05DF804FB07B500239D
:103AD00001AA019301F090FB08B1FDF7E1F801980C
:103AE00003B05DF804FB07B5002301AA019301F0C0
:103AF000C5FC08B1FDF7D4F8019803B05DF804FBEC
:103B000007B5002301AA019301F0F6FC08B1FDF707
:103B1000C7F8019803B05DF804FB000007B5074A39
:103B200000230193126801AB01F048FE08B1FDF7D4
:103B3000B7F8019803B05DF804FB00BFD01B00206C
:103B400007B5074A00230193126801AB01F09EFEFE
:103B500008B1FDF7A5F8019803B05DF804FB00BFBC
:103B6000D01B002007B5002301AA019301F0EAFE53
:103B700008B1FDF795F8019803B05DF804FB00006B
:103B800073B50E4D01AB2A680026019601F01CFFAB
:103B9000019B04463BB168683146FFF795FDA86874
:103BA0003146FFF791FD2CB12046FDF779F820460C
:103BB000FDF776F8019802B070BD00BFD01B002061
:103BC00038B505460C462146284607F0E7FB002895
:103BD000F9D12B6818702388013B238038BD000081
:103BE00037B5002304460D46684601A90193FFF747
:103BF000E7FF009A01AB01322946204601F0B1F9F6
:103C000008B1FDF74DF80199044A0098013101917E
:103C100089B207F035FC03B030BD00BF6539000044
:103C200037B5002304460D46684601A90193FFF706
:103C3000C7FF0B4B009AC3E90045013201AB29468F
:103C4000204601F011FB08B1FDF72AF80199054A59
:103C500000980131019189B207F012FC03B030BD28
:103C6000C81B00207D39000013B50023044601A9BC
:103C700068460193FFF7A4FF00990A4B01AA01319E
:103C800020461C6001F0C6F908B1FDF709F801995A
:103C9000054A00980131019189B207F0F1FB02B0A9
:103CA00010BD00BFC81B0020A139000070B586B050
:103CB00005AE002304460D4604A831460392059341
:103CC000FFF77EFF049B039A0096013329462046A6
:103CD00001F034FB08B1FCF7E3FF0599044A0498AE
:103CE0000131059189B207F0CBFB06B070BD00BF72
:103CF000C139000013B50023044601A968460193A9
:103D0000FFF75EFF009901AA0131204601F0D0F9CA
:103D100008B1FCF7C5FF0199044A009801310191EF
:103D200089B207F0ADFB02B010BD00BFD73900006B
:103D300013B50023044601A968460193FFF740FF2D
:103D4000009901AA0131204601F028FC08B1FCF7D6
:103D5000A7FF0199044A00980131019189B207F047
:103D60008FFB02B010BD00BFED39000037B5002356
:103D700004460D46684601A90193FFF721FF009A0A
:103D800001AB01322946204601F03AFA08B1FCF7AE
:103D900087FF0199044A00980131019189B207F027
:103DA0006FFB03B030BD00BF033A000037B50023FE
:103DB00004460D46684601A90193FFF701FF009AEA
:103DC00001AB01322946204601F0F6FA08B1FCF7B2
:103DD00067FF0199044A00980131019189B207F007
:103DE0004FFB03B030BD00BF193A000070B586B07C
:103DF0000D4605AE00210446059104A83146CDE9E3
:103E00000232FFF7DDFE0499019601310091DDE9F0
:103E100002322946204601F0EBFB08B1FCF740FFD7
:103E20000599044A04980131059189B207F028FBED
:103E300006B070BD2F3A00002DE9F04387B00DF1B8
:103E4000100805461C460F460023414603A8CDE94D
:103E500004339146FFF7B4FE184B1C609D80A4B15B
:103E600005A92846FFF7CAFB28BB059A144E242152
:103E7000234601FB026604F1200C1868596832469B
:103E800003C2083363451646F7D1039BCDF804807F
:103E9000013300934A4623463946284601F0F8FB91
:103EA00008B1FCF7FDFE0499064A0398013104911C
:103EB00089B207F0E5FA07B0BDE8F083C81B00201F
:103EC000181A0020453A000013B50023044601A942
:103ED00068460193FFF774FE00990A4B01AA01316D
:103EE00020461C6001F00CFB08B1FCF7D9FE0199DB
:103EF000054A00980131019189B207F0C1FA02B078
:103F000010BD00BFC81B0020753A000013B5002388
:103F1000044601A968460193FFF752FE009901AAE1
:103F20000131204601F04FF808B1FCF7B9FE0199C4
:103F3000044A00980131019189B207F0A1FA02B058
:103F400010BD00BF993A000070B586B005AE0023E1
:103F500004460D4604A8314603920593FFF730FE50
:103F6000049B039A009601332946204601F0C8F8C5
:103F700008B1FCF795FE0599044A049801310591B2
:103F800089B207F07DFA06B070BD00BFB33A0000F9
:103F900037B5002304460D46684601A90193FFF793
:103FA0000FFE009A01AB01322946204601F0F4F8D9
:103FB00008B1FCF775FE0199044A0098013101919E
:103FC00089B207F05DFA03B030BD00BFCD3A000002
:103FD00037B5002304460D46684601A90193FFF753
:103FE000EFFD009A01AB01322946204601F016FA96
:103FF00008B1FCF755FE0199044A0098013101917E
:1040000089B207F03DFA03B030BD00BFE73A0000C7
:1040100070B586B005AE002304460D4604A83146AF
:1040200003920593FFF7CCFD049B039A009601339E
:104030002946204601F026FA08B1FCF731FE059921
:10404000044A04980131059189B207F019FA06B0C3
:1040500070BD00BF013B000013B50023044601A959
:1040600068460193FFF7ACFD0A4B00991C6001AA5A
:104070000131204601F080FB08B1FCF711FE0199E7
:10408000054A00980131019189B207F0F9F902B0AF
:1040900010BD00BFD01B00201D3B0000F0B585B057
:1040A00003AF002305460E4602A839461446039383
:1040B000FFF786FD0B4B1C60029B009701332246E5
:1040C0003146284601F0A8FB08B1FCF7E9FD039949
:1040D000054A02980131039189B207F0D1F905B080
:1040E000F0BD00BFD01B0020413B000037B50023CE
:1040F00004460D46684601A90193FFF761FD009A49
:1041000001AB01322946204601F0ECFB08B1FCF777
:10411000C7FD0199044A00980131019189B207F065
:10412000AFF903B030BD00BF653B000070B586B08D
:1041300005AE002304460D4604A8314603920593BC
:10414000FFF73EFD0F4B039A1C60BCB12968596014
:10415000A9689960049B009601332946204601F026
:10416000F5FB08B1FCF79CFD0599074A049801315D
:10417000059189B207F084F906B070BDC3E9014426
:10418000E8E700BFD01B0020813B000007B501AA73
:1041900003F044F908B1FCF783FD019803B05DF822
:1041A00004FB07B501AA03F074F908B1FCF778FD28
:1041B000019803B05DF804FB07B501AA03F09AF972
:1041C00008B1FCF76DFD019803B05DF804FB38B54C
:1041D00005460C462146284607F0E0F80028F9D1AC
:1041E0002B6818702388013B238038BD70B586B0DA
:1041F00005AE002304460D4604A8314603920593FC
:10420000FFF7E5FF049B039A0096013329462046F9
:1042100003F0C8F808B1FCF743FD0599044A049877
:104220000131059189B207F02BF906B070BD00BFCE
:104230008D41000070B586B005AE002304460D46E2
:1042400004A8314603920593FFF7C1FF049B039A2C
:10425000009601332946204603F0E4F808B1FCF744
:104260001FFD0599044A04980131059189B207F0B0
:1042700007F906B070BD00BFA341000037B50023A9
:1042800004460D46684601A90193FFF7A0FF009A76
:1042900001AB01322946204603F0FFF808B1FCF7D4
:1042A000FFFC0199044A00980131019189B207F09D
:1042B000E7F803B030BD00BFB941000007B501AA5F
:1042C00004F0B5FB08B1FCF7EBFC019803B05DF816
:1042D00004FB000007B5054B01AA04F099F908B1E9
:1042E000FCF7DEFC019803B05DF804FBDC1B00204A
:1042F00007B5064A01AB126804F072FA08B1FCF780
:10430000CFFC019803B05DF804FB00BFDC1B00206C
:1043100007B5002301AA019304F0C5FA08B1FCF720
:10432000BFFC019803B05DF804FB000007B5054A27
:1043300001AB04F0ABF808B1FCF7B2FC019803B094
:104340005DF804FBDC1B002007B5074A002301933E
:10435000126801AB04F000F908B1FCF7A1FC019868
:1043600003B05DF804FB00BFDC1B002007B5002391
:1043700001AA019304F0F6F908B1FCF791FC019849
:1043800003B05DF804FB000007B5064A01AB1268F4
:1043900004F0AAFB08B1FCF783FC019803B05DF8B8
:1043A00004FB00BFDC1B002007B5064A01AB126806
:1043B00004F000FC08B1FCF773FC019803B05DF851
:1043C00004FB00BFDC1B00201FB503AB0093054BB3
:1043D0001A1F04F0B1FA08B1FCF762FC039805B0AB
:1043E0005DF804FBE01B00201FB503AB0093054BF9
:1043F0001A1F03F0C3FF08B1FCF752FC039805B085
:104400005DF804FBE01B002007B5054A01AB04F092
:104410004DF908B1FCF744FC019803B05DF804FBCA
:10442000DC1B002007B501AA04F01DFC08B1FCF755
:1044300037FC019803B05DF804FB38B505460C461F
:104440002146284606F0AAFF0028F9D12B681870EB
:104450002388013B238038BD70B586B00D4605AE7C
:1044600000210446059104A83146CDE90232FFF748
:10447000E4FF0499019601310091DDE902322946F9
:10448000204604F09BFA08B1FCF70AFC0599044A9F
:1044900004980131059189B206F0F2FF06B070BDB3
:1044A000BD42000037B500230C46054601A9684609
:1044B0000193FFF7C2FFB4B1A3680C4A1360009ADE
:1044C00001AB01322146284604F072F808B1FCF72E
:1044D000E7FB0199064A00980131019189B206F083
:1044E000CFFF03B030BD2346E7E700BFDC1B002051
:1044F000D5420000F0B585B003AF002305460E4657
:1045000002A8394614460393FFF797FF0B4B1C6034
:10451000029B0097013322463146284604F026F9D3
:1045200008B1FCF7BDFB0399054A029801310391DC
:1045300089B206F0A5FF05B0F0BD00BFDC1B00206E
:10454000F142000070B586B005AE002304460D466A
:1045500004A8314603920593FFF76FFF049B039A6B
:10456000009601332946204604F066F908B1FCF7AD
:1045700097FB0599044A04980131059189B206F028
:104580007FFF06B070BD00BF11430000F0B587B0DB
:1045900005AF1C46054600230E4604A83946039283
:1045A0000593FFF74AFF0C4B039A1C60049B01978D
:1045B0000133009331462346284603F01DFF08B11E
:1045C000FCF76EFB0599054A04980131059189B203
:1045D00006F056FF07B0F0BDDC1B00202D430000A5
:1045E000F0B585B003AF002305460E4602A8394654
:1045F00014460393FFF721FF0B4B1C60029B0097AF
:10460000013322463146284603F06CFF08B1FCF71F
:1046100047FB0399054A02980131039189B206F0DC
:104620002FFF05B0F0BD00BFDC1B00204943000098
:1046300037B5002304460D46684601A90193FFF7EC
:10464000FCFE009A01AB01322946204604F05AF8DC
:1046500008B1FCF725FB0199044A0098013101914A
:1046600089B206F00DFF03B030BD00BF6D430000FE
:10467000F0B585B003AF002305460E4602A83946C3
:1046800014460393FFF7D9FE0B4B1C60029B009767
:10469000013322463146284604F0CDF908B1FCF733
:1046A000FFFA0399054A02980131039189B206F095
:1046B000E7FE05B0F0BD00BFDC1B00208943000011
:1046C000F0B585B003AF002305460E4602A8394673
:1046D00014460393FFF7B1FE0B4B1C60029B00973F
:1046E000013322463146284604F02AFA08B1FCF785
:1046F000D7FA0399054A02980131039189B206F06D
:10470000BFFE05B0F0BD00BFDC1B0020A9430000C8
:10471000F0B587B005AF0C4615460646002239466F
:1047200004A803930592FFF788FE0D4A039BC2E994
:104730000045049A01970132009221462A463046EC
:1047400004F0B6F808B1FCF7ABFA0599054A0498ED
:104750000131059189B206F093FE07B0F0BD00BFAC
:10476000DC1B0020C9430000F0B585B003AF0C4648
:1047700000230646394602A815460393FFF75DFE5F
:104780000B4BC3E90045029B009701332A462146A3
:10479000304603F0BDFD08B1FCF782FA0399054AE3
:1047A00002980131039189B206F06AFE05B0F0BDAE
:1047B000DC1B0020E943000013B50023044601A9D7
:1047C00068460193FFF739FE0A4B00991C6001AA65
:1047D0000131204603F048FF08B1FCF761FA019966
:1047E000054A00980131019189B206F049FE02B0F4
:1047F00010BD00BFDC1B00200944000037B50023BA
:1048000004460D46684601A90193FFF716FE009A7B
:1048100001AB01322946204604F0F8F908B1FCF753
:104820003FFA0199044A00980131019189B206F0DA
:1048300027FE03B030BD00BF2544000007B5054A80
:1048400001AB05F071FB08B1FCF72AFA019803B03F
:104850005DF804FBE81B002038B505460C462146F0
:10486000284606F09BFD0028F9D12B681870238894
:10487000013B238038BD07B5002301A96846019399
:10488000FFF7EAFF009801A9013005F079FB08B1B4
:10489000FCF706FA05F02CFC019900980131019112
:1048A000002289B206F0ECFD03B05DF804FB0000C5
:1048B00013B50023044601A968460193FFF7CCFF16
:1048C00000990A4B01AA013120461C6005F006FB45
:1048D00008B1FCF7E5F90199054A00980131019109
:1048E00089B206F0CDFD02B010BD00BFE81B00206C
:1048F0003D48000013B50C46014680B17CB1002351
:10490000019360238DF80330226801AB0DF10300A1
:1049100005F018F908B9019B236002B010BD0E2004
:10492000FBE71346602205F0B1B8000030B589B04E
:104930000D461C46ADF8160011461AB313B30023FA
:104940002268079366238DF81B300DF11B0007AB1F
:10495000CDE9031205F0F6F890B9DDE9031207ABD3
:104960000DF1160005F0D0F850B9074B0093DDE9C2
:10497000031207AB284605F068FA08B9079B2360C5
:1049800009B030BD0E20FBE77B9D00001346662278
:1049900005F07CB8F0B587B00E460C9C074615466E
:1049A00019465BB354B300232268059364238DF842
:1049B00013300DF1130005ABCDE9021205F0C2F87A
:1049C000D0B90F4B0093DDE9021205AB384605F074
:1049D0003CFA88B90090DDE9021205AB304605F0DB
:1049E00034FA48B90090DDE9021205AB284605F01B
:1049F0002CFA08B9059B236007B0F0BD0E20FBE739
:104A0000079D00002DE9F04385B00D46DDF830909C
:104A100090461F460646002834D0B9F1000F31D029
:104A2000002303930A46CDF80090642303A905F000
:104A300013F8044630B9D9F800303BB1039BAB42C0
:104A400000D00924204605B0BDE8F0830DF10B032A
:104A500003AA2946304605F082F888B9B8F1000F5C
:104A6000ECD09DF80B3088F80030002FE6D0009392
:104A700003AA3B462946304605F02EF90028DDD032
:104A80000446DFE70E24DDE72DE9F04188B00F464C
:104A900005909846114622B90E25284608B0BDE873
:104AA000F081002BF8D00023D8F800200793692369
:104AB0008DF81B300DF11B0007ABCDE9031205F09B
:104AC00041F805460028E8D1DDE9031207AB05A847
:104AD00004F0EDFF05460028DFD10090DDE9031268
:104AE00007AB384605F0B1F905460028D5D1DDE918
:104AF00003121FB9079BC8F80030CEE70598242899
:104B00001BD81F2810D8012830D02C462E4620381C
:104B1000032837D9002EBFD0002CBDD007AB2046CC
:104B2000B0470028E6D037E0A0F12103BC1C032BDE
:104B300012D8DFE803F013151719A0281FD006D8E4
:104B4000402816D0412817D000242646DFE7A128A8
:104B5000FAD1124E3C46DAE7114ED8E7114ED6E7AD
:104B6000114ED4E7114ED2E7114ED0E7114E3C461C
:104B7000CDE7114E3C46CAE7104E3C46C7E7104E03
:104B80003C46C4E707AB3846CDE9031204F0DAFF30
:104B9000DDE903120028BDD005467EE7EB95000055
:104BA00009710000FD820000B59500008F730000C0
:104BB000B7990000A99D00003771000095700000B2
:104BC000C99500001346692204F060BFF8B5164687
:104BD0001D46002800F0CF80002B00F0CC8001297A
:104BE00040F2CB80002A00F0C6801B68032B40F205
:104BF000C480043B2B6030F8027B7B1E0239762B8D
:104C000000F2B780DFE803F0B33CB5B5B5B5B5B594
:104C1000B5B5B5B5B5B5B555574F5F5D4B654D6786
:104C20006153595BAF6351B16B6971736D6FB5B50A
:104C3000B5B5B5B5B5B5B57B87757989777D85830C
:104C40007F8B818DB5B5B5B5B5B5B5B5B5B5B5B5D0
:104C5000B5B5B5B5B5B5B58F999795939B919DB5FC
:104C6000B5B5B5B5B5B5B5B5B5B5B5B5B5B5B5B5F4
:104C7000B5B5B5B5B5B5B59FA1A3A5A7A9ABAD0011
:104C80003F4C2B463246A0472B68002803F1040313
:104C90002B601CBF0027002337807380F8BD394C80
:104CA000EFE7394CEDE7394CEBE7394CE9E7394CA4
:104CB000E7E7394CE5E7394CE3E7394CE1E7394CB4
:104CC000DFE7394CDDE7394CDBE7394CD9E7394CC4
:104CD000D7E7394CD5E7394CD3E7394CD1E7394CD4
:104CE000CFE7394CCDE7394CCBE7394CC9E7394CE4
:104CF000C7E7394CC5E7394CC3E7394CC1E7394CF4
:104D0000BFE7394CBDE7394CBBE7394CB9E7394C03
:104D1000B7E7394CB5E7394CB3E7394CB1E7394C13
:104D2000AFE7394CADE7394CABE7394CA9E7394C23
:104D3000A7E7394CA5E7394CA3E7394CA1E7394C33
:104D40009FE7394C9DE7394C9BE7394C99E7394C43
:104D500097E7394C95E7394C93E7394C91E7394C53
:104D60008FE7394C8DE7394C8BE7394C89E7394C63
:104D700087E7052088E70E2090E709208EE700BF2F
:104D8000594E0000715E0000995A0000995B0000C6
:104D9000F95B0000595C0000B95C0000195D00007F
:104DA00001610000EF5E0000E15F00004160000073
:104DB000F15A0000A1600000795D0000D15D0000A3
:104DC000896100000962000029630000856300001A
:104DD00069620000C96200009D7500003176000024
:104DE000597700008178000015790000ED77000008
:104DF0003D7A0000B97A0000C5760000A97900006C
:104E0000097500004D7B0000C97B0000798E000011
:104E1000258E0000918D00006F8C0000D18D000068
:104E2000C58C0000318F0000858F0000FF950000C9
:104E30007B960000F79600005D970000B197000098
:104E40002D980000939800003B9900002D5A000017
:104E5000595F00000D4F0000F0B585B01C460023DF
:104E60000D4616460293074600284BD0002C49D029
:104E700023680F2B02D8092005B0F0BD103B23603A
:104E80001346022223F8042B02AA04F04EFE002847
:104E9000F2D106F1080302AA2946384604F05FFE63
:104EA0000028E9D106F1100302AA2946384604F089
:104EB0003CFE0028E0D133464FF0FF3243F80C2F80
:104EC0002946009002AA384604F0DDFF0028D3D11D
:104ED000F36863B1B08803A9FEF740FC0028CBD18A
:104EE000094B039A0C2101FB02335B68F360B08825
:104EF000FEF720FC0028BFD1029BAB42BBD11023A0
:104F00002360B9E70E20B7E7601B0020F7B51C4609
:104F100000230D4617460193064600B3FCB12368F3
:104F2000042B02D8092003B0F0BD053B23601346D3
:104F3000012223F8042B01AA04F0F7FD0028F2D186
:104F400007F1080301AA2946304604F008FE0028AC
:104F5000E9D1019BAB42E5D105232360E3E70E20B5
:104F6000E1E710B586B01C468DF80E108DF80F00E5
:104F7000114612B30BB300232268059373238DF8F7
:104F800013300DF1130005ABCDE9011204F0DAFD89
:104F900088B9DDE9011205AB0DF10F0004F0D2FD77
:104FA00048B9DDE9011205AB0DF10E0004F0CAFDB0
:104FB00008B9059B236006B010BD0E20FBE7134621
:104FC000732204F063BD30B585B014468DF8070038
:104FD0000D46C9B1C2B100230393742312688DF842
:104FE0000B300DF10B0003AB009204F0ABFD48B9A0
:104FF000009A03AB29460DF1070004F0A3FD08B9A0
:10500000039B236005B030BD0E20FBE713467422DE
:1050100004F03CBD70B5064686B014460D46C9B1D5
:10502000C2B100230593792312688DF813300DF176
:10503000130005AB039204F085FD48B90090039A74
:1050400005AB2946304604F000FF08B9059B2360F4
:1050500006B070BD0E20FBE7F0B587B00D46039299
:105060001E460746F8B1F3B1002305930A460096A1
:10507000792305A904F0F0FC044628B9336833B15C
:10508000059BAB4200D00924204607B0F0BD074B7A
:10509000009305AA03AB2946384604F0F4FE002825
:1050A000EED00446F0E70E24EEE700BF2B9B000095
:1050B00030B585B01446ADF806000D46C9B1C2B191
:1050C00000230393782312688DF80B300DF10B0049
:1050D00003AB009204F036FD48B9009A03AB2946B1
:1050E0000DF1060004F010FD08B9039B236005B024
:1050F00030BD0E20FBE71346782204F0C7BC000049
:105100002DE9F04387B017460E9EADF80E008DF8DE
:105110000D101C46ABB3A6B30023356805930DF103
:10512000140980238DF813302A464B4621460DF191
:10513000130004F007FD08BB9DF80D30022B22D8A8
:10514000124A214612F803800DF10E004B462A4602
:1051500004F0DAFC90B94B462A4621460DF10D00C9
:1051600004F0F0FC50B9CDF800902B4622464146A1
:10517000384604F00CFD08B9059B336007B0BDE864
:10518000F0830E20FAE70720F8E700BF3092010015
:105190001346802204F07ABC30B589B00D461C4617
:1051A000ADF8160011461AB313B300232268079313
:1051B0007E238DF81B300DF11B0007ABCDE90312E8
:1051C00004F0C0FC90B9DDE9031207AB0DF1160045
:1051D00004F09AFC50B9074B0093DDE9031207ABCA
:1051E000284604F032FE08B9079B236009B030BDA1
:1051F0000E20FBE7B965000013467E2204F046BC92
:1052000030B589B00D461C46ADF8160011461AB3EC
:1052100013B300232268079375238DF81B300DF11B
:105220001B0007ABCDE9031204F08CFC90B9DDE95B
:10523000031207AB0DF1160004F066FC50B9074BE2
:105240000093DDE9031207AB284604F0FEFD08B920
:10525000079B236009B030BD0E20FBE79D66000070
:105260001346752204F012BC70B50E4686B0054692
:105270001C4611461AB313B30023226805937D23FD
:105280008DF813300DF1130005ABCDE9021204F0D7
:1052900059FC90B90B4B0093DDE9021205AB304687
:1052A00004F0D3FD48B90090DDE9021205AB2846B1
:1052B00004F0CBFD08B9059B236006B070BD0E203D
:1052C000FBE700BF099B0000F0B587B0CDE90232D3
:1052D0000C9F0D46064668B367B3002305930A4644
:1052E00000977D2305A904F0B7FB044628B93B6865
:1052F00033B1059BAB4200D00924204607B0F0BD76
:105300004FF6FF73ADF812300B4B009305AA02ABBA
:105310002946304604F0B7FD50B90DF11203009351
:1053200005AA03AB2946304604F0AAFC0028E0D0C9
:105330000446E2E70E24E0E72B9B00002DE9FF473F
:105340000C9E82460F4615461C4653B34EB30023AF
:10535000D6F8008003930DF10C097C238DF80B30F7
:1053600042464B4621460DF10B0004F0EBFBA8B979
:10537000F82D18D80D4B009342464B462146504617
:1053800004F063FD50B9CDF800904346224629460B
:10539000384604F028FC08B9039B336004B0BDE82C
:1053A000F0870E20FAE70720F8E700BF91650000BC
:1053B00013467C2204F06ABB10B586B01C468DF8FB
:1053C0000D10ADF80E00114612B30BB30023226886
:1053D000059376238DF813300DF1130005ABCDE95D
:1053E000011204F0AFFB88B9DDE9011205AB0DF144
:1053F0000E0004F089FB48B9DDE9011205AB0DF19F
:105400000D0004F09FFB08B9059B236006B010BD9A
:105410000E20FBE71346762204F038BB30B589B086
:105420000D461C46ADF8160011461AB313B30023FF
:105430002268079381238DF81B300DF11B0007AB09
:10544000CDE9031204F07EFB90B9DDE9031207AB4E
:105450000DF1160004F058FB50B9074B0093DDE93D
:10546000031207AB284604F0F0FC08B9079B236041
:1054700009B030BD0E20FBE74B6F000013468122C0
:1054800004F004BBF0B589B00E460E9CADF81600D2
:10549000154619465BB354B300232268079384234F
:1054A0008DF81B300DF11B0007ABCDE9031204F0A2
:1054B00049FBD0B9DDE9031207AB0DF1160004F08A
:1054C00023FB90B90B4F0097DDE9031207AB304681
:1054D00004F0BBFC48B9DDE90312009707AB28468E
:1054E00004F0B3FC08B9079B236009B0F0BD0E209F
:1054F000FBE700BF696F00001346842204F0C6BAC0
:1055000070B5064686B014460D46C9B1C2B1002337
:1055100005937B2312688DF813300DF1130005AB52
:10552000039204F00FFB48B90090039A05AB29469B
:10553000304604F08AFC08B9059B236006B070BDB4
:105540000E20FBE7F0B587B00D4603921E460746D6
:10555000F8B1F3B1002305930A4600967B2305A911
:1055600004F07AFA044628B9336833B1059BAB429C
:1055700000D00924204607B0F0BD074B009305AAD0
:1055800003AB2946384604F07EFC0028EED00446E2
:10559000F0E70E24EEE700BF1368000070B5064682
:1055A00086B014460D46D1B1CAB1002305937A23C3
:1055B00012688DF813300DF1130005AB039204F05F
:1055C000C1FA50B9074B0093039A05AB2946304600
:1055D00004F03BFC08B9059B236006B070BD0E20AB
:1055E000FBE700BF9D66000013467A2204F04EBA26
:1055F0002DE9F04186B0DDE90C45884617461E4688
:10560000ADF80E00002C37D0002D35D000230593C7
:1056100086232A688DF81330214605AB0DF113005F
:10562000029204F08FFA20BB029A05AB21460DF1DD
:105630000E0004F069FAE0B9104B0093029A05AB32
:105640002146404604F001FC98B90D4B0093029AA4
:1056500005AB2146384604F0F8FB50B9094B0093DE
:10566000029A05AB2146304604F0EFFB08B9059BD2
:105670002B6006B0BDE8F0810E20FAE70D6900004E
:10568000AD680000536900001346862204F0FEB99D
:10569000F0B587B0DDE90C4517461E46ADF80E00A3
:1056A0008DF80D10002C35D0002D33D0002305933C
:1056B0007F232A688DF81330214605AB0DF11300C6
:1056C000029204F03FFA18BB029A05AB21460DF195
:1056D0000E0004F019FAD8B9029A05AB21460DF173
:1056E0000D0004F02FFA98B90B4B0093029A05AB0A
:1056F0002146384604F0A9FB50B9084B0093029AA2
:1057000005AB2146304604F0A0FB08B9059B2B6091
:1057100007B0F0BD0E20FBE7B96500009D6E0000EC
:10572000F0B587B00D4603921E460746F8B1F3B1B7
:10573000002305930A4600967F2305A904F08CF9FF
:10574000044628B9336833B1059BAB4200D0092425
:10575000204607B0F0BD074B009305AA03AB2946CE
:10576000384604F090FB0028EED00446F0E70E2403
:10577000EEE700BFDD6E000070B5064686B0144649
:105780000D46C9B1C2B1002305936D2312688DF88F
:1057900013300DF1130005AB039204F0D3F948B9AF
:1057A0000090039A05AB2946304604F04EFB08B939
:1057B000059B236006B070BD0E20FBE72DE9FF417D
:1057C0000D4690461E46074620B90E24204604B0DA
:1057D000BDE8F081002BF8D0002303930A46009621
:1057E0006D2303A904F038F904460028EED133688C
:1057F00023B1039BAB42E9D00924E7E7B8F1000FDE
:10580000E3D0434603AA2946384601F0E0F80028D1
:10581000EFD00446DAE7000070B588B00E460C9C65
:10582000ADF81600154619465BB354B30023226841
:10583000079390238DF81B300DF11B0007ABCDE9CA
:10584000031204F07FF9D0B9DDE9031207AB0DF1C3
:10585000160004F059F990B90B4B0093DDE90312DF
:1058600007AB304604F0F1FA48B90090DDE90312C5
:1058700007AB284604F0E9FA08B9079B236008B093
:1058800070BD0E20FBE700BF95710000F0B587B03A
:105890000D4603921E460746F8B1F3B10023059367
:1058A0000A460096902305A904F0D6F8044628B9C4
:1058B000336833B1059BAB4200D00924204607B0C2
:1058C000F0BD074B009305AA03AB2946384604F008
:1058D000DAFA0028EED00446F0E70E24EEE700BF27
:1058E0002972000030B589B00D461C46ADF816008F
:1058F00011461AB313B30023226807938F238DF840
:105900001B300DF11B0007ABCDE9031204F01AF9AF
:1059100090B9DDE9031207AB0DF1160004F0F4F8BD
:1059200050B9074B0093DDE9031207AB284604F09A
:105930008CFA08B9079B236009B030BD0E20FBE745
:105940006572000013468F2204F0A0B8F0B587B04E
:105950000E460C9C0746154619466BB364B30023EC
:105960002268059372238DF813300DF1130005ABF7
:10597000CDE9021204F0E6F8E0B9104B0093DDE93E
:10598000021205AB384604F060FA98B90C4B00934C
:10599000DDE9021205AB304604F057FA50B9094B65
:1059A0000093DDE9021205AB284604F04EFA08B96F
:1059B000059B236007B0F0BD0E20FBE7459B000070
:1059C00011650000B56F0000F0B587B00D46039279
:1059D0001E460746F8B1F3B1002305930A46009628
:1059E000722305A904F038F8044628B9336833B1A6
:1059F000059BAB4200D00924204607B0F0BD074B01
:105A0000009305AA03AB2946384604F03CFA002867
:105A1000EED00446F0E70E24EEE700BF5F9B0000E7
:105A200010B4019CA4465DF8044B60472DE9FF418A
:105A30001D4600230E4690460393074640B33DB3F0
:105A40002B68272B04D80924204604B0BDE8F08138
:105A5000283B2B6013461D2223F8042B03AA04F0D5
:105A600064F804460028EFD1FDF73EFE094B009391
:105A700003AA08F1080331463846FFF7D1FF044670
:105A80000028E1D1039BB342DDD128232B60DBE763
:105A90000E24D9E7816B0000F7B51C4600230D46A4
:105AA00017460193064600B3FCB12368042B02D8C5
:105AB000092003B0F0BD053B23601346172223F8ED
:105AC000042B01AA04F031F80028F2D107F10803F1
:105AD00001AA2946304604F042F80028E9D1019B8A
